S017000041565253746174654D616368696E652E737265636E
S11300000C9474000C9493000C9493000C9493003F
S11300100C9493000C9493000C9493000C94930010
S11300200C9493000C9493000C9493000C94930000
S11300300C9493000C9493000C9493000C949300F0
S11300400C9493000C9493000C9493000C949300E0
S11300500C9493000C9493000C9493000C949300D0
S11300600C9493000C9493000C9493000C949300C0
S11300700C9493000C9493000C9493000C949300B0
S11300800C9493000C9493000C9493000C949300A0
S11300900C9493000C9493000C9493000C94930090
S11300A00C9493000C9493000C9493000C94930080
S11300B00C9493000C9493000C9493000C94930070
S11300C00C9493000C9493000C9493000C94930060
S11300D00C9493000C9493000C9493000C94930050
S11300E00C9493000C94930011241FBECFEFCDBF4A
S11300F0DFE7DEBF10E4A0E0B0E4E0E5F9E000E013
S11301000BBF02C007900D92A43DB107D9F720E4BC
S1130110A4EDB0E401C01D92A83DB207E1F70E942E
S113012077010C94A6040C9400002AE030E4FC014E
S11301302083318308952AE030E4FC012083318355
S11301400E9455010895FFCFFC0182E190E4808371
S113015091831282638314821582168208951F93F9
S1130160CF93DF93EC01162F4115510551F482E032
S113017090E00E945201AC018AE090E4FA0180838D
S113018091834D835E8381E08C831A83DF91CF91C9
S11301901F9108950F931F93CF93DF93EC018C81EC
S11301A0882309F444C00D811E811D821E821C8295
S11301B09A818B81981710F00E94A104E881F9813B
S11301C00480F581E02DCE010995EA81F0E0EE0F7F
S11301D0FF1FEE0FFF1FE80FF91F8281938180FD3F
S11301E004C00190F081E02D0FC0DC01B595A79506
S11301F0AC0FBD1F4D915C9120813181FA01E20F5A
S1130200F31F0190F081E02D95958795B8018C0F2F
S11302109D1F09950115110511F209F2D801ED91FF
S1130220FC910280F381E02DC8010995B8CFDF91DC
S1130230CF911F910F910895CF93DF93EC016E3FFF
S113024069F44115510579F071F0DA01ED91FC91F1
S11302500280F381E02DCA01099505C00E94AF0018
S1130260CE010E94CA00DF91CF9108950F931F938E
S1130270CF93DF938C01C0E0D0E0C830D10548F4BF
S1130280FE01E85EFF4B6081C8010E9433032196A2
S1130290F4CF6AE0C8010E943303DF91CF911F912C
S11302A00F9108950E94800308950E9418040895F0
S11302B083E390E4089522E130E4FC012083318358
S11302C008952AE030E4FC012083318308952AE074
S11302D030E4FC01208331830E945501089522E11A
S11302E030E4FC01208331830E9455010895CF93AB
S11302F0DF93CDB7DEB72C97CDBFDEBFE0E4F4E0EB
S113030080E4818380E8828387898860878B68E0C2
S1130310CE0101960E94A4008DE290E489839A8321
S113032061E070E0CE0108960E94E20261E070E0B4
S1130330CE010A960E94E202CE010A960E9436017C
S113034084E090E00E945201FC011282138225E2B3
S113035030E420833183809148048823E4F3CE0180
S113036001960E94E201F7CFE0E0F4E08181816030
S1130370818380E18093E605E0E4FAE083E481830D
S113038081E792E086A397A30895CF93DF9300D0EB
S1130390CDB7DEB769837A8329813A81FC01208352
S11303A0318389819A81E0E4FAE082A793A7898165
S11303B09A8184A795A78FE080830F900F90DF9197
S11303C0CF910895DC011296EC91F0E0E553FF4BD8
S11303D0608140E050E00E941C010895DC01129607
S11303E0EC91F0E0EE53FF4B608140E050E00E945E
S11303F01C010895DC011296EC91F0E0E754FF4BE8
S1130400608140E050E00E941C010895DC011296D6
S1130410EC91F0E0E055FF4B608140E050E00E9439
S11304201C010895CF93DF93EC0163E570E4079614
S11304300E9453032FEF88E09DE3215080409040B9
S1130440E1F700C0000040E050E061E0CE010E940E
S1130450AF00DF91CF910895CF93DF93EC0168E56E
S113046070E407960E9453032FEF88E09DE3215028
S113047080409040E1F700C0000040E050E062E0BE
S1130480CE010E94AF00DF91CF910895CF93DF9307
S1130490EC0166E670E407960E9453032FEF88E0B0
S11304A09DE3215080409040E1F700C0000040E00F
S11304B050E063E0CE010E94AF00DF91CF91089538
S11304C0CF93DF93EC0166E770E407960E94530331
S11304D02FEF88E09DE3215080409040E1F700C079
S11304E0000040E050E064E0CE010E94AF00DF91E4
S11304F0CF910895CF93DF93EC0165E870E40796FC
S11305000E9453032FEF88E09DE3215080409040E8
S1130510E1F700C0000040E050E065E0CE010E9439
S1130520AF00DF91CF910895CF93DF93EC016BE897
S113053070E407960E9453032FEF88E09DE3215057
S113054080409040E1F700C0000040E050E066E0E9
S1130550CE010E94AF00DF91CF910895CF93DF9336
S1130560EC016BE970E407960E9453032FEF88E0D7
S11305709DE3215080409040E1F700C0000040E03E
S113058050E067E0CE010E94AF00DF91CF91089563
S1130590CF93DF93EC016BEA70E407960E94530358
S11305A02FEF88E09DE3215080409040E1F700C0A8
S11305B0000040E050E060E0CE010E94AF00DF9117
S11305C0CF9108956330710510F060E070E0613000
S11305D07105D9F06230710579F1672B09F042C0D9
S11305E0FC0110821182E0E0F4E081E0818382E08A
S11305F08183E0E0F8E083E896E08087918783E0F8
S11306008783868180648683089521E030E0FC013D
S113061020833183E0E4F4E081E0818382E081831C
S1130620E0E2F8E083E896E08087918783E08783BF
S1130630868180648683089522E030E0FC01208373
S11306403183E0EAF4E080E1818380E28183E0E4C5
S1130650F8E083E896E08087918783E0878386814A
S1130660806486830895FC018081918181309105A5
S113067061F08230910581F0892BA1F48091040806
S113068085FFFCCF6093020808958091240885FFBC
S1130690FCCF6093220808958091440885FFFCCF25
S11306A0609342080895EF92FF920F931F93CF93A4
S11306B0DF937C018B01C0E0D0E0F80101900020C1
S11306C0E9F73197E01BF10BCE17DF0748F4F80187
S11306D0EC0FFD1F6081C7010E9433032196EDCF0B
S11306E06AE0C7010E943303DF91CF911F910F91FC
S11306F0FF90EF9008950895FC0180819181089501
S11307000F931F93CF93DF938230910510F482E00F
S113071090E0E091D640F091D74020E030E0A0E0B6
S1130720B0E0309719F1408151810281138148175B
S11307305907C8F08417950769F4109731F0129699
S11307400C93129713961C9327C00093D6401093D2
S1130750D74022C02115310519F04217530718F468
S11307609A01BD01EF01DF01F801DBCF211531054D
S1130770F9F0281B390B2430310580F48A819B81E0
S11307806115710521F0FB018283938304C080937A
S1130790D6409093D740FE01329644C0FE01E20F4A
S11307A0F31F8193919322503109288339833AC0EE
S11307B02091D4403091D540232B41F42091024024
S11307C0309103402093D4403093D5402091004091
S11307D0309101402115310541F42DB73EB74091C8
S11307E0044050910540241B350BE091D440F09116
S11307F0D540E217F307A0F42E1B3F0B2817390747
S113080078F0AC014E5F5F4F2417350748F04E0F68
S11308105F1F4093D4405093D5408193919302C07D
S1130820E0E0F0E0CF01DF91CF911F910F910895A7
S1130830CF93DF93009709F481C0FC0132971282B1
S11308401382A091D640B091D740109781F42081B3
S11308503181820F931F2091D4403091D5402817C5
S1130860390751F5E093D440F093D54067C0ED01CA
S113087020E030E0CE17DF0740F44A815B819E011F
S113088041155105F1F0EA01F5CFC283D3834081CC
S11308905181840F951FC817D90759F4888199810C
S11308A0840F951F0296808391838A819B81828322
S11308B093832115310529F4E093D640F093D74072
S11308C03DC0E901EA83FB8349915991C40FD51FC7
S11308D0EC17FD0761F480819181840F951F0296C6
S11308E0E90188839983828193818A839B83E0E0F1
S11308F0F0E012968D919C911397009719F0FD01E9
S1130900DC01F7CF8D919C9111979D012E5F3F4F94
S1130910820F931F2091D4403091D5402817390776
S113092069F4309729F41092D6401092D74002C04F
S113093012821382A093D440B093D540DF91CF911B
S1130940089581E090E0F8940C94A604F894FFCF05
S11309500000D84020000000000095009B0000002B
S1130960000000000000A30041542B4241554434D0
S1130970000000000061016701000000005B016FDE
S1130980015801120200002C02000046020000601F
S11309900200007A02000094020000AE020000C8C7
S11309A0020000496E6974005761697420666F72B1
S11309B020696E6974005761697420666F72206CD7
S11309C061756E636800506F776572656420666C4C
S11309D06967687400436F61737400446573636589
S11309E06E742070686173652031004465736365BB
S11309F06E74207068617365203200446F6E650008
S1130A00FEFEFEFEFEFE07FE00FEFEFE0506FEFEE8
S1130A10FE00FEFEFE04FEFEFEFE0000FE03FEFEE1
S1070A20FEFEFE00D4
S9030000FC
