:100000000C9474000C9493000C9493000C94930043
:100010000C9493000C9493000C9493000C94930014
:100020000C9493000C9493000C9493000C94930004
:100030000C9493000C9493000C9493000C949300F4
:100040000C9493000C9493000C9493000C949300E4
:100050000C9493000C9493000C9493000C949300D4
:100060000C9493000C9493000C9493000C949300C4
:100070000C9493000C9493000C9493000C949300B4
:100080000C9493000C9493000C9493000C949300A4
:100090000C9493000C9493000C9493000C94930094
:1000A0000C9493000C9493000C9493000C94930084
:1000B0000C9493000C9493000C9493000C94930074
:1000C0000C9493000C9493000C9493000C94930064
:1000D0000C9493000C9493000C9493000C94930054
:1000E0000C9493000C94930011241FBECFEFCDBF4E
:1000F000DFE7DEBF10E4A0E0B0E4E6E6F8E000E011
:100100000BBF02C007900D92A238B107D9F720E4C7
:10011000A2E8B0E401C01D92A638B207E1F70E9440
:1001200077010C9431040C9400002AE030E4FC01C7
:100130002083318308952AE030E4FC012083318359
:100140000E9455010895FFCFFC0182E190E4808375
:1001500091831282638314821582168208951F93FD
:10016000CF93DF93EC01162F4115510551F482E036
:1001700090E00E945201AC018AE090E4FA01808391
:1001800091834D835E8381E08C831A83DF91CF91CD
:100190001F9108950F931F93CF93DF93EC018C81F0
:1001A000882309F444C00D811E811D821E821C8299
:1001B0009A818B81981710F00E942C04E881F981B4
:1001C0000480F581E02DCE010995EA81F0E0EE0F83
:1001D000FF1FEE0FFF1FE80FF91F8281938180FD43
:1001E00004C00190F081E02D0FC0DC01B595A7950A
:1001F000AC0FBD1F4D915C9120813181FA01E20F5E
:10020000F31F0190F081E02D95958795B8018C0F33
:100210009D1F09950115110511F209F2D801ED9103
:10022000FC910280F381E02DC8010995B8CFDF91E0
:10023000CF911F910F910895CF93DF93EC016E3F03
:1002400069F44115510579F071F0DA01ED91FC91F5
:100250000280F381E02DCA01099505C00E94AF001C
:10026000CE010E94CA00DF91CF9108950F931F9392
:10027000CF93DF938C01C0E0D0E0C830D10548F4C3
:10028000FE01E85EFF4B6081C8010E94BE0221961C
:10029000F4CF6AE0C8010E94BE02DF91CF911F91A6
:1002A0000F9108950E940B0308950E94A3030895DF
:1002B00083E390E4089522E130E4FC01208331835C
:1002C00008952AE030E4FC012083318308952AE078
:1002D00030E4FC01208331830E945501089522E11E
:1002E00030E4FC01208331830E9455010895CF93AF
:1002F000DF93CDB7DEB72C97CDBFDEBFE0E4F4E0EF
:1003000080E4818380E8828387898860878B64E0CA
:10031000CE0101960E94A4008DE290E489839A8325
:1003200061E070E0CE0108960E946D02CE01089651
:100330000E943601CE010B960E94C90184E090E034
:100340000E9452018C0185E290E4F8018083918340
:1003500084E690E082839383B801CE0101960E94E7
:100360000302CE0101960E94F70180914804882380
:100370005CF084E690E0F80182839383B801CE01BB
:1003800001960E940302F1CFCE0101960E94F7016F
:10039000ECCFE0E0F4E081818160818380E18093B3
:1003A000E605E0E4FAE083E4818381E792E086A356
:1003B00097A30895CF93DF9300D0CDB7DEB76983BD
:1003C0007A8329813A81FC012083318389819A8152
:1003D000E0E4FAE082A793A789819A8184A795A790
:1003E0008FE080830F900F90DF91CF910895DC0113
:1003F0001296EC91F0E0E358FF4B608140E050E052
:100400000E941C010895AB01DC011296EC91F0E012
:10041000E858FF4B60810E941C010895CF93DF9341
:10042000EC0180E4809345042FE78AE196E02150B7
:1004300080409040E1F700C0000063E470E4CE012A
:1004400007960E94DE0269E370E0CE010A960E94E0
:10045000DA012FEF89E698E1215080409040E1F7E2
:1004600000C00000DF91CF910895CF93DF93EC019E
:1004700040E050E060E00E94AF006EE470E4CE0126
:1004800007960E94DE0269E170E0CE010A960E94A2
:10049000DA012FEF89E698E1215080409040E1F7A2
:1004A00000C00000DF91CF91089520E4209346041E
:1004B0002FE73AE146E0215030404040E1F700C0EC
:1004C000000069E570E407960E94DE02089565E683
:1004D00070E407960E94DE0208956330710510F003
:1004E00060E070E061307105D9F06230710579F13A
:1004F000672B09F042C0FC0110821182E0E0F4E0B9
:1005000081E0818382E08183E0E0F8E083E896E0A7
:100510008087918783E087838681806486830895BE
:1005200021E030E0FC0120833183E0E4F4E081E06D
:10053000818382E08183E0E2F8E083E896E08087CF
:10054000918783E08783868180648683089522E093
:1005500030E0FC0120833183E0EAF4E080E1818334
:1005600080E28183E0E4F8E083E896E08087918789
:1005700083E087838681806486830895FC0180817F
:1005800091818130910561F08230910581F0892B54
:10059000A1F48091040885FFFCCF609302080895C0
:1005A0008091240885FFFCCF6093220808958091F4
:1005B000440885FFFCCF609342080895EF92FF92B4
:1005C0000F931F93CF93DF937C018B01C0E0D0E0AA
:1005D000F80101900020E9F73197E01BF10BCE17ED
:1005E000DF0748F4F801EC0FFD1F6081C7010E948E
:1005F000BE022196EDCF6AE0C7010E94BE02DF91E4
:10060000CF911F910F91FF90EF9008950895FC01F5
:100610008081918108950F931F93CF93DF93823050
:10062000910510F482E090E0E0918440F0918540E3
:1006300020E030E0A0E0B0E0309719F14081518136
:100640000281138148175907C8F08417950769F488
:10065000109731F012960C93129713961C9327C0A3
:10066000009384401093854022C02115310519F074
:100670004217530718F49A01BD01EF01DF01F80199
:10068000DBCF21153105F9F0281B390B243031055A
:1006900080F48A819B816115710521F0FB018283C1
:1006A000938304C08093844090938540FE013296EA
:1006B00044C0FE01E20FF31F819391932250310950
:1006C000288339833AC02091824030918340232B84
:1006D00041F42091024030910340209382403093B6
:1006E000834020910040309101402115310541F4B3
:1006F0002DB73EB74091044050910540241B350B67
:10070000E0918240F0918340E217F307A0F42E1BA2
:100710003F0B2817390778F0AC014E5F5F4F241765
:10072000350748F04E0F5F1F40938240509383403F
:100730008193919302C0E0E0F0E0CF01DF91CF918F
:100740001F910F910895CF93DF93009709F481C013
:10075000FC01329712821382A0918440B0918540AF
:10076000109781F420813181820F931F2091824064
:10077000309183402817390751F5E0938240F09378
:10078000834067C0ED0120E030E0CE17DF0740F482
:100790004A815B819E0141155105F1F0EA01F5CFD7
:1007A000C283D38340815181840F951FC817D90715
:1007B00059F488819981840F951F029680839183D3
:1007C0008A819B81828393832115310529F4E093EB
:1007D0008440F09385403DC0E901EA83FB83499161
:1007E0005991C40FD51FEC17FD0761F480819181E9
:1007F000840F951F0296E9018883998382819381F2
:100800008A839B83E0E0F0E012968D919C91139790
:10081000009719F0FD01DC01F7CF8D919C911197A4
:100820009D012E5F3F4F820F931F20918240309198
:1008300083402817390769F4309729F410928440CF
:100840001092854002C012821382A0938240B0931E
:100850008340DF91CF91089581E090E0F8940C946B
:060860003104F894FFCF03
:100866000000864020000000000095009B0000006C
:10087600000000000000A30041542B4241554434BF
:10088600000000000061016701000000005B016FCD
:100896000158010E020000350200005502000067F3
:1008A60002000049646C65205374617465005374DA
:1008B6006F702053746174650053746172742053B1
:1008C60074617465004368616E6765205370656581
:1008D600642053746174650002FF030300FEFF0188
:0208E60001000F
:00000001FF
